:1000000050C0DBC169C068C067C066C065C064C05D
:1000100063C062C061C060C05FC05EC05DC00902F5
:100020002200010100801909040000010300000002
:100030000921010100012223000705810308000AAC
:10004000120110010000000858044C0000010102D8
:100050000001160343006100700073004600750044
:1000600063006B006500720012037200650062009D
:100070006F0075006300610073000403090405014B
:100080000906A101050719E029E7150025017501F9
:10009000950881029501750825651900296581007B
:1000A000C00011241FBECFE5D1E0DEBFCDBF10E000
:1000B000A0E6B0E0E4E5FCE002C005900D92A436B5
:1000C000B107D9F720E0A4E6B0E001C01D92A73A3D
:1000D000B207E1F73BD3BCC593CFCF93C62F209196
:1000E000600024FF0BC030917D0028E82327209377
:1000F0007D00FC01AEE7B0E08C2F04C02AE5209320
:100100006000F7CF815018F091919D93FBCF6C2F39
:100110008EE790E03BD1CC5FC0936000CF91089513
:10012000CF93DF9380918D0018160CF0AEC09091A4
:100130008A00209189002D3219F090E880E09FC05C
:100140002AE5209361008B30C1F7CCE0D0E0C91BD9
:10015000D109CF56DF4F8881807609F081C0109297
:100160007B00898181110BC010927C008BE790E0AD
:1001700090938C0080938B0090E882E079C085306A
:1001800021F48A8180938E0071C0863009F04CC0C2
:100190008B81813019F480E490E01DC0823049F4F5
:1001A0008EE190E090938C0080938B0090EC82E243
:1001B0005FC0833019F58A81811109C08AE790E018
:1001C00090938C0080938B0090EC84E051C0813040
:1001D00049F488E690E090938C0080938B0090EC3B
:1001E00082E146C0823009F03FC082E590E0909302
:1001F0008C0080938B0090EC86E13AC0813249F408
:1002000080E390E090938C0080938B0090EC89E0E9
:100210002FC0823249F58EE790E090938C00809356
:100220008B0090EC83E224C0883019F480E990E0E0
:100230000AC0893021F48A818093900017C08A30E7
:1002400049F48BE790E090938C0080938B0090E8CA
:1002500081E00EC08B3051F483EC80937D0006C0AA
:10026000CE0108D290E804C090EC01C090E880E094
:100270002F81211104C02E81281708F4822F90931A
:1002800065008093620010928D008091610084FF70
:1002900045C0809162008F3F09F440C0C82F89306B
:1002A00008F0C8E08C1B809362002091650020FF5D
:1002B00002C0D3EC01C0DBE42F5F20936500809186
:1002C0008B0090918C0026FD05C0FC01A3E7B0E0F7
:1002D0002C2F0AC0A3E7B0E0FC012C2F215048F0DE
:1002E00034913D933196FACF215018F031913D93DE
:1002F000FBCF8C0F911D90938C0080938B006C2F03
:1003000083E790E043D084E08C0FC83019F09FEF72
:1003100090936200D0937200809361008AE096B35C
:10032000957031F48150D9F710928E0010928800A8
:10033000C1E08111C0E0809164008C1729F0C111E7
:1003400001C0C1D1C0936400DF91CF91089585B7FA
:10035000836085BF8BB780648BBF83EC80937D0007
:100360000895A82FB92F80E090E041E050EA609511
:100370006F5F58F42D9138EF82279795879510F08D
:10038000842795273F5FC8F3F3CF0895EADF8D9365
:100390009D930895A6E088279927AA9569F001976B
:1003A000E1F3B099FCCFB09BFECF81E09927A6B3D3
:1003B000019611F0A570D9F70895CF93CFB7CF93D9
:1003C000B09BFECFB09B0BC0B09B09C0B09B07C0D9
:1003D000B09B05C0B09B03C0B09B01C0D5C00F92BD
:1003E000DF93C0918A00DD27CF56DF4F012EB09BEF
:1003F00003C0DF910F90E6CF2F930F931F934F937E
:100400002FEF4F6F06B300FB20F95F933F9350E04F
:100410003BE065C016B30126502950FDC89556B380
:10042000012700FB25F92F7306B3B1F050271027E1
:1004300010FB26F906B22230F0F000C016B30127F7
:1004400000FB27F90126502906B22430E8F54F7742
:10045000206816B30000F6CF50274F7D206206B209
:10046000102F000000C006B300265029102710FBF3
:1004700026F906B2E2CF4F7B06B3206400C0DACF84
:1004800001265029157006B269F14E7F2160012FB7
:1004900016B328C0002650294D7F06B22260102FC7
:1004A00029C0012650294B7F06B22460012F2DC0A0
:1004B00016B301265029477F2860000006B22EC0DF
:1004C0004F7E06B3206130C0422706B34993002611
:1004D0005029102706B24FEF10FB20F9297F16B3E1
:1004E00079F2157059F10126502906B2012700FB57
:1004F00021F9237F06B371F2002650293150D0F044
:1005000006B2102710FB22F9277E16B351F20126FE
:100510005029012700FB06B223F92F7C49F2000085
:1005200006B3102710FB24F90026502906B22F79B4
:1005300039F270CF10E41ABF002719C03B50319533
:10054000C31BD04010E41ABF0881033C09F10B34EF
:10055000F9F0209188001981110F1213EDCF4A8113
:10056000441F093651F10D3211F0013E29F7009375
:100570008F003F915F914F911F910F912F91DF91CC
:100580000F90CAB7C6FD1CCFCF91CFBFCF911895A2
:1005900000918F00002369F310918D00112379F5EC
:1005A00034307AF130938D000093890010918A00E5
:1005B0003BE0311B30938A0024C000918D00013054
:1005C000F4F40AE54F7049F43091610034FD1AC02B
:1005D00000936100C2E7D0E019C03091600034FDA3
:1005E00011C000936000CDE7D0E010C0052710E0F7
:1005F00000C021C0052710E0C89508BB14C03AE52B
:1006000001C032ED032EC0E0D0E032E017B3156038
:10061000C09A08B317BB55E020E84FEF20FF05272D
:1006200008BB279517951C3F28F700004552B0F7E7
:1006300020FF0527279508BB17951C3FB8F6299181
:100640003A9561F70A7F10918E00110F08BBC250D6
:10065000D04011F01093880010E41ABF016017B366
:100660001A7F402F4A7F54E05A95F1F708BB17BB19
:1006700048BB7FCFFC0180E790E090938C00809393
:100680008B00808180768032E1F48181813051F469
:100690008091680080937000809169008093710060
:1006A00082E00895823041F48FE690E090938C00D0
:1006B00080938B0081E008958A3019F483818093C0
:1006C0006F0080E00895DF92EF92FF920F931F93E7
:1006D000CF93DF9308E010E0C0E0D0E8DD2EDC0E21
:1006E000D1BE58DE7C0184E3E81689E0F8060CF4FC
:1006F000CD2DD6950150110989F78FEF8C0F81BF51
:100700000C2F10E00F5F1F4F81B78017110669F0A3
:1007100064F0C1BF61B790E080E0DF91CF911F919D
:100720000F91FF90EF90DF9085C234DE84539940A3
:1007300097FF03C09195819591098E159F0514F43B
:10074000C1B77C0181B78F5F81BFDECF90E080E0D1
:1007500069D28F3F09F081BFB89A84E1E2EBF1EFF3
:100760003197F1F700C000008150C1F7B89888E1D7
:100770009EE00FB6F894A89581BD0FBE91BDC19AB9
:10078000C39AC49A8BE080BFE2DD789484E0F82EAF
:10079000C2E093E2E92E24E2D22E35E2C32E46E3F4
:1007A000B42E56E2A52ED7E36EE1962E77E2872E81
:1007B00018E3EDE27E2E0FE1A895B2DC80916E0089
:1007C0008823D1F08091600084FFF6CF809168008B
:1007D00080937000809169008093710062E080E7EF
:1007E00090E07BDC80916E00815080936E001092CF
:1007F000690010926800E0CF08B602FEDDCFF8BEB7
:1008000010926B00B19916C081E080936B0020912B
:100810006B002223A1F0233008F4FEC180916C000C
:1008200090916D00019690936D0080936C002093E1
:100830006A00C2CFB399EBCFC0936B00E8CF809131
:100840006A0040916C0050916D008130A9F4809154
:100850006700880F80936700909166009F5F909378
:1008600066004630510518F0816080936700109251
:100870006D0010926C00D2CF823059F44530510592
:1008800028F4D0936900C0936E00F1CF10936900F3
:10089000FACF8111C3CF4132510508F4BFCF809107
:1008A0006700803109F465C108F043C0873009F45E
:1008B0000EC108F590916600833009F4DEC078F42B
:1008C000813009F4B6C008F48BC0933009F4D1C06C
:1008D000943009F4D0C081E1923041F58AC085306E
:1008E00009F4EEC008F4E3C0933009F4EEC094308C
:1008F000E9F483E17EC08B3009F40DC160F490917E
:100900006600893009F4FCC008F4F0C086E0943039
:1009100009F46FC00BC08D3009F410C108F402C196
:100920008E3009F417C18F3009F41BC11092690091
:1009300062C08C3109F43EC100F5853109F42FC144
:1009400068F4823109F420C108F416C1843171F7CA
:1009500080916600853051F783E34BC0883109F4FC
:1009600026C18A3109F429C1863101F780916600D8
:100970008530E1F6C092690091C08A3209F434C131
:1009800090F48F3109F425C1813209F425C18E31EB
:1009900069F680916600853009F418C1863031F619
:1009A0007092690028C08D3209F426C158F48B3248
:1009B00009F0BCCF80916600863009F0B7CF9092E5
:1009C00069006CC0833309F41FC1883709F0AECFCA
:1009D00080916600873009F0A9CFD09369005EC08E
:1009E000933009F1B8F49130E1F08CE0923009F0E5
:1009F0009DCF8093690080916900882331F0C09376
:100A00006E0010926D0010926C00109267001092B0
:100A1000660004CF953059F040F088E2963049F3F3
:100A200085CF88E0E6CF86E1E4CF8BE0E2CF82E2BB
:100A3000E0CF9330C1F040F4913099F0923009F05A
:100A400075CFF0926900D7CF953089F070F096306D
:100A500009F06CCF8CE48093690085E08093680096
:100A6000CACF87E1C6CF88E1C4CF89E1C2CF81E296
:100A7000C0CF85E1BECF89E0BCCF9430A1F038F47F
:100A8000923079F08AE1933009F4B3CF4FCF9530AB
:100A900061F0963009F04ACFD0926900C0936800A7
:100AA000AACF80E1A6CF8CE2A4CF80E2A2CF933080
:100AB00029F0943009F03ACF8FE09BCF87E099CFAF
:100AC000933009F023CF8EE094CF8AE092CF8091CB
:100AD0006600843009F443C0853029F0833009F082
:100AE00025CF82E186CF0093690085CF943031F025
:100AF000953009F01BCFE0926900D0CF85E079CF27
:100B0000943039F0973009F011CF81E28093690079
:100B1000C5CF8BE16ECF80916600843009F006CF9F
:100B20008CE167CF80916600843031F0863009F027
:100B3000FDCE70926900B2CF8DE15BCF80916600EF
:100B4000843031F0863009F0F1CE10936900A6CFE1
:100B500084E14FCF80916600843009F0E7CE8DE0CC
:100B600048CF80916600853009F0E0CE9092690010
:100B700042CFE09269003FCF80916600853009F056
:100B8000D5CE809269008ACF80916600853009F4C5
:100B900083CF863009F0CACE009369007FCF809161
:100BA0006600863009F0C2CED093690024CFD0927F
:100BB000690021CFC09269001ECF80916600863007
:100BC00009F0B4CE0093690080E448CFA092690098
:100BD00012CF809269000FCF80916600863009F0B5
:100BE000A5CE1093690007CF80916600863009F08A
:100BF0009DCEB092690052CF80916600863009F098
:100C000095CEA09269004ACF80916600863009F0A7
:100C10008DCEB0926900EFCE80916A00882309F4EE
:100C200026CEFCCDE199FECF1FBA8EBBE09A992764
:100C30008DB30895262FE199FECF1CBA1FBA8EBB43
:100C40002DBB0FB6F894E29AE19A0FBE0196089573
:040C5000F894FFCF46
:040C54005A5AFF00E9
:00000001FF
